{
  "contractName": "Greeter",
  "abi": [
    {
      "inputs": [],
      "stateMutability": "nonpayable",
      "type": "constructor"
    },
    {
      "inputs": [],
      "name": "greet",
      "outputs": [
        {
          "internalType": "string",
          "name": "",
          "type": "string"
        }
      ],
      "stateMutability": "view",
      "type": "function"
    },
    {
      "inputs": [
        {
          "internalType": "string",
          "name": "greeting",
          "type": "string"
        }
      ],
      "name": "setGreeting",
      "outputs": [],
      "stateMutability": "nonpayable",
      "type": "function"
    },
    {
      "inputs": [],
      "name": "owner",
      "outputs": [
        {
          "internalType": "address",
          "name": "",
          "type": "address"
        }
      ],
      "stateMutability": "view",
      "type": "function"
    }
  ],
  "bytecode": "0x60806040526040518060400160405280600e81526020017f48656c6c6f2c20576f726c6420210000000000000000000000000000000000008152505f908162000049919062000301565b5034801562000056575f80fd5b503360015f6101000a81548173ffffffffffffffffffffffffffffffffffffffff021916908373ffffffffffffffffffffffffffffffffffffffff160217905550620003e5565b5f81519050919050565b7f4e487b71000000000000000000000000000000000000000000000000000000005f52604160045260245ffd5b7f4e487b71000000000000000000000000000000000000000000000000000000005f52602260045260245ffd5b5f60028204905060018216806200011957607f821691505b6020821081036200012f576200012e620000d4565b5b50919050565b5f819050815f5260205f209050919050565b5f6020601f8301049050919050565b5f82821b905092915050565b5f60088302620001937fffffffffffffffffffffffffffffffffffffffffffffffffffffffffffffffff8262000156565b6200019f868362000156565b95508019841693508086168417925050509392505050565b5f819050919050565b5f819050919050565b5f620001e9620001e3620001dd84620001b7565b620001c0565b620001b7565b9050919050565b5f819050919050565b6200020483620001c9565b6200021c6200021382620001f0565b84845462000162565b825550505050565b5f90565b6200023262000224565b6200023f818484620001f9565b505050565b5b8181101562000266576200025a5f8262000228565b60018101905062000245565b5050565b601f821115620002b5576200027f8162000135565b6200028a8462000147565b810160208510156200029a578190505b620002b2620002a98562000147565b83018262000244565b50505b505050565b5f82821c905092915050565b5f620002d75f1984600802620002ba565b1980831691505092915050565b5f620002f18383620002c6565b9150826002028217905092915050565b6200030c826200009d565b67ffffffffffffffff811115620003285762000327620000a7565b5b62000334825462000101565b620003418282856200026a565b5f60209050601f83116001811462000377575f841562000362578287015190505b6200036e8582620002e4565b865550620003dd565b601f198416620003878662000135565b5f5b82811015620003b05784890151825560018201915060208501945060208101905062000389565b86831015620003d05784890151620003cc601f891682620002c6565b8355505b6001600288020188555050505b505050505050565b61072580620003f35f395ff3fe608060405234801561000f575f80fd5b506004361061003f575f3560e01c80638da5cb5b14610043578063a413686214610061578063cfae32171461007d575b5f80fd5b61004b61009b565b60405161005891906101e3565b60405180910390f35b61007b60048036038101906100769190610265565b6100c3565b005b610085610167565b604051610092919061033a565b60405180910390f35b5f60015f9054906101000a900473ffffffffffffffffffffffffffffffffffffffff16905090565b60015f9054906101000a900473ffffffffffffffffffffffffffffffffffffffff1673ffffffffffffffffffffffffffffffffffffffff163373ffffffffffffffffffffffffffffffffffffffff1614610152576040517f08c379a0000000000000000000000000000000000000000000000000000000008152600401610149906103ca565b60405180910390fd5b81815f9182610162929190610622565b505050565b60606040518060400160405280600c81526020017f48656c6c6f20576f726c64210000000000000000000000000000000000000000815250905090565b5f73ffffffffffffffffffffffffffffffffffffffff82169050919050565b5f6101cd826101a4565b9050919050565b6101dd816101c3565b82525050565b5f6020820190506101f65f8301846101d4565b92915050565b5f80fd5b5f80fd5b5f80fd5b5f80fd5b5f80fd5b5f8083601f84011261022557610224610204565b5b8235905067ffffffffffffffff81111561024257610241610208565b5b60208301915083600182028301111561025e5761025d61020c565b5b9250929050565b5f806020838503121561027b5761027a6101fc565b5b5f83013567ffffffffffffffff81111561029857610297610200565b5b6102a485828601610210565b92509250509250929050565b5f81519050919050565b5f82825260208201905092915050565b5f5b838110156102e75780820151818401526020810190506102cc565b5f8484015250505050565b5f601f19601f8301169050919050565b5f61030c826102b0565b61031681856102ba565b93506103268185602086016102ca565b61032f816102f2565b840191505092915050565b5f6020820190508181035f8301526103528184610302565b905092915050565b7f4f776e61626c65203a2063616c6c6572206973206e6f7420746865206f776e655f8201527f7200000000000000000000000000000000000000000000000000000000000000602082015250565b5f6103b46021836102ba565b91506103bf8261035a565b604082019050919050565b5f6020820190508181035f8301526103e1816103a8565b9050919050565b5f82905092915050565b7f4e487b71000000000000000000000000000000000000000000000000000000005f52604160045260245ffd5b7f4e487b71000000000000000000000000000000000000000000000000000000005f52602260045260245ffd5b5f600282049050600182168061046357607f821691505b6020821081036104765761047561041f565b5b50919050565b5f819050815f5260205f209050919050565b5f6020601f8301049050919050565b5f82821b905092915050565b5f600883026104d87fffffffffffffffffffffffffffffffffffffffffffffffffffffffffffffffff8261049d565b6104e2868361049d565b95508019841693508086168417925050509392505050565b5f819050919050565b5f819050919050565b5f61052661052161051c846104fa565b610503565b6104fa565b9050919050565b5f819050919050565b61053f8361050c565b61055361054b8261052d565b8484546104a9565b825550505050565b5f90565b61056761055b565b610572818484610536565b505050565b5b818110156105955761058a5f8261055f565b600181019050610578565b5050565b601f8211156105da576105ab8161047c565b6105b48461048e565b810160208510156105c3578190505b6105d76105cf8561048e565b830182610577565b50505b505050565b5f82821c905092915050565b5f6105fa5f19846008026105df565b1980831691505092915050565b5f61061283836105eb565b9150826002028217905092915050565b61062c83836103e8565b67ffffffffffffffff811115610645576106446103f2565b5b61064f825461044c565b61065a828285610599565b5f601f831160018114610687575f8415610675578287013590505b61067f8582610607565b8655506106e6565b601f1984166106958661047c565b5f5b828110156106bc57848901358255600182019150602085019450602081019050610697565b868310156106d957848901356106d5601f8916826105eb565b8355505b6001600288020188555050505b5050505050505056fea26469706673582212202a8035a6be3c9e6eacbf29ae32e8da4e22f44b1fd15337c5ca5bebae54b869d564736f6c63430008150033",
  "immutableReferences": {},
  "source": "pragma solidity ^0.8.0;\n\ncontract Greeter{\n\n    string private _greeting = \"Hello, World !\";\n    address private _owner;\n\n    constructor () public{\n        _owner = msg.sender;\n    }\n\n    modifier onlyOwner(){\n        require(\n            msg.sender == _owner,\n            \"Ownable : caller is not the owner\"\n        );\n        _;\n    }\n\n    function greet() external view returns(string memory){\n        return \"Hello World!\";\n    }\n    function setGreeting(string calldata greeting) external onlyOwner{\n        _greeting = greeting;\n    }\n    function owner() public view returns(address){\n        return _owner;\n    }\n}",
  "sourcePath": "/Users/jeevanyadav/greeter/contracts/Greeter.sol",
  "compiler": {
    "name": "solc",
    "version": "0.8.21+commit.d9974bed.Emscripten.clang"
  },
  "schemaVersion": "3.4.16",
  "updatedAt": "2026-01-06T06:24:05.363Z",
  "devdoc": {
    "kind": "dev",
    "methods": {},
    "version": 1
  },
  "userdoc": {
    "kind": "user",
    "methods": {},
    "version": 1
  }
}